:020000040800F2
:10000000A0400120DD1400087123000879230008B6
:1000100081230008892300089123000800000000C4
:10002000000000000000000000000000A1410008E6
:100030009923000800000000B1430008194400089B
:100040004915000849150008491500084915000818
:100050004915000849150008491500084915000808
:1000600049150008491500084915000849150008F8
:1000700049150008491500084915000849150008E8
:1000800049150008491500084915000849150008D8
:10009000491500084915000849150008A92300085A
:1000A00049150008491500084915000849150008B8
:1000B00049150008491500084915000849150008A8
:1000C0004915000849150008491500084915000898
:1000D000491500084D5B0008FD5B0008AD5C000899
:1000E000B9230008491500084915000849150008FA
:1000F0004915000849150008491500084915000868
:100100004915000849150008491500084915000857
:100110005D5D00080D5E00084915000849150008DE
:100120004915000849150008491500084915000837
:100130004915000849150008491500084915000827
:100140004915000849150008491500084915000817
:10015000491500084915000849150008BD5E00084A
:1001600049150008491500084915000849150008F7
:1001700049150008491500084915000849150008E7
:10018000491500084915000810B5054C237833B906
:10019000044B13B10448AFF300800123237010BD5A
:1001A000380900200000000038D60008084B10B5C0
:1001B0001BB108490848AFF300800848036803B939
:1001C00010BD074B002BFBD0BDE81040184700BF07
:1001D000000000003C09002038D60008300900204B
:1001E0000000000080B586B000AFC0233B61022351
:1001F0003B750123BB750023FB7502237B75012131
:10020000022002F035F807F110031946174803F0F1
:1002100011FB04220621154803F09AFB0422072152
:10022000124803F095FB0023BB804BF6FF73FB8065
:100230000F4B3B6000237B814FF48043BB81EE2357
:100240003B8101214FF4001002F032F8094804F01C
:100250008FFE0121074804F087FF3B4619460548F9
:1002600004F0C0FE00BF1837BD4680BD0004024048
:10027000801A06000054004080B582B000AF0346EB
:10028000FB710B46BB801346BB7101211D4804F076
:100290008BFF00BF1C491B4805F022F80346002BCA
:1002A000F8D0FB7900221946164804F0BDFF00BFC4
:1002B0001649144805F014F80346002BF8D0BB8803
:1002C000DBB219460F4804F0EDFF00BF10490D489E
:1002D00005F006F80346002BF8D0BB79194609480B
:1002E00004F0E0FF00BF0A49064804F0F9FF0346A6
:1002F000002BF8D00121034804F076FF00BF083737
:10030000BD4680BD0054004001000300820007008C
:100310008400070080B584B000AF03460A46FB7135
:100320001346BB8000BF4FF400312D4805F008F89C
:100330000346002BF7D10121294804F035FF00BF07
:100340002849274804F0CCFF0346002BF8D0FB795E
:1003500000221946224804F067FF00BF22492048C6
:1003600004F0BEFF0346002BF8D0BB88DBB2194671
:100370001B4804F097FF00BF1C49194804F0B0FF68
:100380000346002BF8D00121154804F00DFF00BFF3
:100390001449134804F0A4FF0346002BF8D0FB795E
:1003A000012219460E4804F03FFF00BF10490C48D7
:1003B00004F096FF0346002BF8D0094804F082FFB2
:1003C0000346FB730021064804F04CFF012104485A
:1003D00004F00AFFFB7B18461037BD4680BD00BF06
:1003E0000054004001000300820007008400070061
:1003F0004000030090B587B000AFBA607B60034651
:10040000FB730B46BB8100BF4FF40031344804F04E
:1004100097FF0346002BF7D10121314804F022FF5A
:1004200001212F4804F0C0FE00BF2E492C4804F0E3
:1004300057FF0346002BF8D0FB7B002219462848C3
:1004400004F0F2FE00BF2849254804F049FF0346A6
:10045000002BF8D0BB89DBB21946214804F022FFFB
:1004600000BF22491E4804F03BFF0346002BF8D092
:1004700001211B4804F098FE00BF1A49184804F0F7
:100480002FFF0346002BF8D0FB7B012219461448AE
:1004900004F0CAFE00237B6112E000BF144910483B
:1004A00004F01EFF0346002BF8D07B69BA68D4180D
:1004B0000B4804F007FF034623707B6901337B611F
:1004C0007A697B689A42E8D30021054804F0CAFEA5
:1004D0000121034804F088FE00BF1C37BD4690BDD3
:1004E0000054004001000300820007008400070060
:1004F00040000300B0B586B000AF87ED040B87ED78
:10050000021B87ED002BA84BD3E900341A46234683
:10051000D7E9020107F01CFA03460C46A34AC2E9D8
:100520000034A24BD3E90001D7E9002307F0C4FB54
:1005300003460C46184621469D4BD3E900341A4623
:10054000234607F007FA03460C46994AC2E90034ED
:10055000984BD3E90045974BD3E90601D7E900232F
:1005600007F0AAFB02460B4610461946914BD3E909
:10057000022307F0EDF902460B46104619468D4B53
:10058000D3E9042307F0E4F902460B461046194666
:10059000894BD3E9002307F0DDF902460B461046EC
:1005A0001946D7E9002307F087FB02460B46204691
:1005B000294607F0CFF903460C467E4AC2E90034CB
:1005C0007C4BD3E902457B4BD3E90601D7E90023F5
:1005D00007F072FB02460B462046294607F0B8F9A1
:1005E00003460C46734AC2E90234724BD3E9044510
:1005F000704BD3E90601D7E9002307F05DFB024603
:100600000B462046294607F0A3F903460C46694AE3
:10061000C2E90434674BD3E90645684BD3E90001CE
:10062000D7E9002307F048FB02460B46204629463F
:1006300007F090F903460C465E4AC2E906345D4B6A
:10064000D3E900015E4BD3E900341A46234607F094
:1006500081F903460C465B4AC2E90034554BD3E9A5
:100660000001584BD3E900341A46234607F04EFCEC
:1006700003460C46544AC2E900344E4BD3E9040108
:10068000504BD3E900341A46234607F03FFC03469B
:100690000C464D4AC2E90234454BD3E900341A46B0
:1006A0002346D7E9040107F053F903460C46474AAD
:1006B000C2E90034444BD3E90001444BD3E9003490
:1006C0001A46234607F0F8FA03460C461846214618
:1006D000374BD3E900341A46234607F03BF903466B
:1006E0000C46334AC2E90034374BD3E90201374B99
:1006F000D3E900341A46234607F0DEFA03460C46D7
:1007000018462146284BD3E900341A46234607F001
:1007100021F903460C46244AC2E90034254BD3E9AB
:100720000045294BD3E90001224BD3E9002307F010
:10073000C3FA02460B462046294607F009F903464C
:100740000C461C4AC2E900341A4BD3E902451E4B41
:10075000D3E90001174BD3E9022307F0ADFA0246B3
:100760000B462046294607F0F3F803460C46114A8B
:10077000C2E902340F4BD3E90445134BD3E902011C
:100780000C4BD3E9002307F097FA02460B462046AC
:10079000294607F0DDF803460C46064AC2E9043450
:1007A000044BD3E9064513E07009002088090020B6
:1007B00058090020A809002000000020080000209F
:1007C00010000020500A0020080A0020380A0020EB
:1007D0000F4BD3E902010F4BD3E9022307F06CFA68
:1007E00002460B462046294607F0B2F803460C465F
:1007F000084AC2E90634084BD3E9003444EC173BFD
:10080000B0EE470AF0EE670A1837BD46B0BD00BF2C
:10081000080A0020A809002058090020B0B586B0B9
:1008200000AF87ED040B87ED021B87ED002BA84B73
:10083000D3E900341A462346D7E9020107F088F8C5
:1008400003460C46A34AC2E90034A24BD3E9000197
:10085000D7E9002307F030FA03460C461846214634
:100860009D4BD3E900341A46234607F073F803463C
:100870000C46994AC2E90034984BD3E90045974B9E
:10088000D3E90601D7E9002307F016FA02460B4622
:1008900010461946914BD3E9022307F059F8024656
:1008A0000B46104619468D4BD3E9042307F050F848
:1008B00002460B4610461946894BD3E9002307F040
:1008C00049F802460B4610461946D7E9002307F0BF
:1008D000F3F902460B462046294607F03BF803464B
:1008E0000C467E4AC2E900347C4BD3E902457B4B7F
:1008F000D3E90601D7E9002307F0DEF902460B46EB
:100900002046294607F024F803460C46734AC2E9FC
:100910000234724BD3E90445704BD3E90601D7E9A1
:10092000002307F0C9F902460B462046294607F086
:100930000FF803460C46694AC2E90434674BD3E911
:100940000645684BD3E90001D7E9002307F0B4F965
:1009500002460B462046294606F0FCFF03460C469D
:100960005E4AC2E906345D4BD3E900015E4BD3E930
:1009700000341A46234606F0EDFF03460C465B4A58
:10098000C2E90034554BD3E90001584BD3E9003498
:100990001A46234607F0BAFA03460C46544AC2E9FF
:1009A00000344E4BD3E90401504BD3E900341A46CE
:1009B000234607F0ABFA03460C464D4AC2E902341F
:1009C000454BD3E900341A462346D7E9040106F023
:1009D000BFFF03460C46474AC2E90034444BD3E903
:1009E0000001444BD3E900341A46234607F064F96A
:1009F00003460C4618462146374BD3E900341A46C5
:100A0000234606F0A7FF03460C46334AC2E90034EA
:100A1000374BD3E90201374BD3E900341A4623465A
:100A200007F04AF903460C4618462146284BD3E9FD
:100A300000341A46234606F08DFF03460C46244A2E
:100A4000C2E90034254BD3E90045294BD3E9000125
:100A5000224BD3E9002307F02FF902460B4620462C
:100A6000294606F075FF03460C461C4AC2E90034CD
:100A70001A4BD3E902451E4BD3E90001174BD3E9CA
:100A8000022307F019F902460B462046294606F0D4
:100A90005FFF03460C46114AC2E902340F4BD3E90B
:100AA0000445134BD3E902010C4BD3E9002307F0B3
:100AB00003F902460B462046294606F049FF034645
:100AC0000C46064AC2E90434044BD3E9064513E058
:100AD000780900209009002060090020C809002042
:100AE000180000202000002028000020580A0020C4
:100AF000180A0020400A00200F4BD3E902010F4BD7
:100B0000D3E9022307F0D8F802460B4620462946CF
:100B100006F01EFF03460C46084AC2E90634084B9D
:100B2000D3E9003444EC173BB0EE470AF0EE670A15
:100B30001837BD46B0BD00BF180A0020C809002004
:100B400060090020B0B586B000AF87ED040B87EDDB
:100B5000021B87ED002BA84BD3E900341A4623462D
:100B6000D7E9020106F0F4FE03460C46A34AC2E9A7
:100B70000034A24BD3E90001D7E9002307F09CF829
:100B800003460C46184621469D4BD3E900341A46CD
:100B9000234606F0DFFE03460C46994AC2E90034BC
:100BA000984BD3E90045974BD3E90601D7E90023D9
:100BB00007F082F802460B4610461946914BD3E9DE
:100BC000022306F0C5FE02460B46104619468D4B21
:100BD000D3E9042306F0BCFE02460B461046194634
:100BE000894BD3E9002306F0B5FE02460B461046BA
:100BF0001946D7E9002307F05FF802460B46204666
:100C0000294606F0A7FE03460C467E4AC2E9003498
:100C10007C4BD3E902457B4BD3E90601D7E900239E
:100C200007F04AF802460B462046294606F090FE99
:100C300003460C46734AC2E90234724BD3E90445B9
:100C4000704BD3E90601D7E9002307F035F80246D7
:100C50000B462046294606F07BFE03460C46694AB1
:100C6000C2E90434674BD3E90645684BD3E9000178
:100C7000D7E9002307F020F802460B462046294614
:100C800006F068FE03460C465E4AC2E906345D4B38
:100C9000D3E900015E4BD3E900341A46234606F03F
:100CA00059FE03460C465B4AC2E90034554BD3E972
:100CB0000001584BD3E900341A46234607F026F9C1
:100CC00003460C46544AC2E900344E4BD3E90401B2
:100CD000504BD3E900341A46234607F017F9034670
:100CE0000C464D4AC2E90234454BD3E900341A465A
:100CF0002346D7E9040106F02BFE03460C46474A7B
:100D0000C2E90034444BD3E90001444BD3E9003439
:100D10001A46234606F0D0FF03460C4618462146E5
:100D2000374BD3E900341A46234606F013FE034638
:100D30000C46334AC2E90034374BD3E90201374B42
:100D4000D3E900341A46234606F0B6FF03460C46A4
:100D500018462146284BD3E900341A46234606F0AC
:100D6000F9FD03460C46244AC2E90034254BD3E979
:100D70000045294BD3E90001224BD3E9002306F0BB
:100D80009BFF02460B462046294606F0E1FD03463E
:100D90000C461C4AC2E900341A4BD3E902451E4BEB
:100DA000D3E90001174BD3E9022306F085FF024681
:100DB0000B462046294606F0CBFD03460C46114A59
:100DC000C2E902340F4BD3E90445134BD3E90201C6
:100DD0000C4BD3E9002306F06FFF02460B4620467A
:100DE000294606F0B5FD03460C46064AC2E904341E
:100DF000044BD3E9064513E0800900209809002040
:100E000068090020E8090020300000203800002098
:100E100040000020600A0020280A0020480A002024
:100E20000F4BD3E902010F4BD3E9022306F044FF35
:100E300002460B462046294606F08AFD03460C462C
:100E4000084AC2E90634084BD3E9003444EC173BA6
:100E5000B0EE470AF0EE670A1837BD46B0BD00BFD6
:100E6000280A0020E80900206809002090B482B018
:100E700000AF87ED000B054AD7E90034C2E9003422
:100E800000BF0837BD4690BC704700BF580900201E
:100E900090B482B000AF87ED000B054AD7E900346B
:100EA000C2E9003400BF0837BD4690BC704700BFA0
:100EB0006009002090B482B000AF87ED000B054AB6
:100EC000D7E90034C2E9003400BF0837BD4690BC02
:100ED000704700BF6809002090B583B000AF144A86
:100EE0004FF000034FF00004C2E900340023FB710F
:100EF0000123FB710E4A0CA4D4E90034C2E900348A
:100F0000FB795B01FB71FB791A4601213C20FFF75D
:100F1000B3F9002202213C20FFF7AEF900BF0C37E5
:100F2000BD4690BDAFF30080713D0AD7A370ED3F81
:100F3000680A002080B586B000AFF860B9607A60BA
:100F40000023FB7507F11002062303213C20FFF765
:100F500051FA3B7C1B021AB27B7C1BB213431AB2C0
:100F6000FB681A80BB7C1B021AB2FB7C1BB21343CA
:100F70001AB27B681A803B7D1B021AB27B7D1BB2C2
:100F800013431AB2BB681A8000BF1837BD4680BD34
:100F9000B0B58AB000AFF860B9607A6000237B8397
:100FA00000233B830023FB8207F1160207F118019F
:100FB00007F11A031846FFF7BDFFB7F91A301846B4
:100FC00006F014FE73A3D3E9002306F0C3FC034626
:100FD0000C461846214607F031F903467B62B7F903
:100FE0001830184606F002FE4FF00002684B06F07B
:100FF000B1FC03460C461846214607F01FF903468C
:101000003B62B7F91630184606F0F0FD52A3D3E95B
:10101000002306F09FFC03460C461846214607F0C5
:101020000DF90346FB61786A06F0F2FD4CA3D3E9A3
:10103000002306F041FE03460C4625461C46386A4E
:1010400006F0E6FD48A3D3E9002306F035FE02468C
:101050000B462046294606F07DFC03460C462546F5
:101060001C46F86906F0D4FD41A3D3E9002306F03D
:1010700023FE02460B462046294606F06BFC03463B
:101080000C46FA68C2E90034786A06F0C1FD36A35E
:10109000D3E9002306F010FE03460C4625461C4605
:1010A000386A06F0B5FD34A3D3E9002306F004FE48
:1010B00002460B462046294606F04CFC03460C46E9
:1010C00025461C46F86906F0A3FD2DA3D3E90023AD
:1010D00006F0F2FD02460B462046294606F03AFC91
:1010E00003460C46BA68C2E90034786A06F090FDFF
:1010F0001FA3D3E9002306F0DFFD03460C46254677
:101100001C46386A06F084FD1DA3D3E9002306F0CF
:10111000D3FD02460B462046294606F01BFC03463B
:101120000C4625461C46F86906F072FD16A3D3E965
:10113000002306F0C1FD02460B462046294606F074
:1011400009FC03460C467A68C2E9003400BF283720
:10115000BD46B0BDAFF300803333333333B33640D5
:10116000938D075BEC76EE3FDE6AE745370C603F18
:101170008B750536429A8C3F06F7031E1840EC3FEC
:1011800048A685C3B9237F3F44A852B307DAEF3F8F
:1011900000406340CDCCCCCCCCEC584080B58AB07C
:1011A00000AF7860396000237B6200233B6200233C
:1011B000FB610023BB617B681B8A9BB27B627B6AFD
:1011C00023F440537B623B68DB881A467B6A1343F7
:1011D0007B627B6A9AB27B681A827B689B899BB22E
:1011E0007B627B6A23F4B05323F00C037B623B6881
:1011F0009A883B681B8913439AB23B685B89134307
:101200009BB21A467B6A13437B627B6A9AB27B6805
:101210009A817B689B8A9BB27B627B6A23F44073D2
:101220007B623B689B891A467B6A13437B627B6ABD
:101230009AB27B689A8207F10803184600F06EFFA5
:101240007B68304A934203D07B682F4A934202D195
:101250007B693B6201E03B693B627B689B899BB297
:101260001BB2002B0CDA3A6A13469B0013449A0017
:101270001A443B681B685B00B2FBF3F3FB610BE0B5
:101280003A6A13469B0013449A001A443B681B6851
:101290009B00B2FBF3F3FB61FB691C4AA2FB032337
:1012A0005B091B017B627B6A1B09642202FB03F35F
:1012B000FA69D31ABB617B689B899BB21BB2002B76
:1012C0000CDABB69DB003233104AA2FB03235B0953
:1012D00003F007037A6A13437B620BE0BB691B01CF
:1012E00032330A4AA2FB03235B0903F00F037A6A35
:1012F00013437B627B6A9AB27B681A8100BF2837EE
:10130000BD4680BD00100140001401401F85EB5117
:1013100080B483B000AF78600B46FB70FB78002B85
:1013200008D07B689B899BB243F400539AB27B68D8
:101330009A8107E07B689B899BB223F400539AB2A1
:101340007B689A8100BF0C37BD465DF8047B70470F
:1013500080B483B000AF78600B467B807B88C3F39A
:1013600008039AB27B689A8000BF0C37BD465DF8CF
:10137000047B704780B483B000AF78607B689B8843
:101380009BB2C3F308039BB218460C37BD465DF809
:10139000047B704780B487B000AF78600B467B80D9
:1013A00013467B7000233B610023FB600023BB607E
:1013B00000237B617B687B617B88DBB25B09DBB2EE
:1013C0003B617B8803F01F03FB600122FB6802FA8C
:1013D00003F3BB603B69012B03D17B690C337B6159
:1013E00009E03B69022B03D17B6910337B6102E08A
:1013F0007B6914337B617B78002B06D07B697A692B
:101400001168BA680A431A6006E07B697A69116854
:10141000BA68D2430A401A6000BF1C37BD465DF867
:10142000047B704780B487B000AF78600B467B8048
:101430000023FB6000237B610023BB600023FB745F
:101440007B88DBB25B09DBB2BB607B8803F01F03E8
:101450007B6101227B6902FA03F37B61BB68012B8C
:1014600007D17B689B899BB21A467B6913407B61DD
:1014700011E0BB68022B07D17B681B8A9BB21A461E
:101480007B6913407B6106E07B689B8A9BB21A46AE
:101490007B6913407B617B881B0A9BB2FB60012246
:1014A000FB6802FA03F3FB607B681B889BB21A4659
:1014B000FB681340FB607B69002B05D0FB68002BA9
:1014C00002D00123FB7401E00023FB74FB7C18466F
:1014D0001C37BD465DF8047B704700BF80B582B005
:1014E00000AF134B7B60134B3B6007E03B681A1D5A
:1014F0003A607A68111D796012681A603B680E4A7A
:101500009342F3D30D480E494FF000028842B8BF12
:1015100040F8042BFADBDFF82C00016841F470017D
:10152000016000F093FD00BF0837BD4680BD00BFDD
:1015300040D60008000000203409002038090020AF
:10154000A038012088ED00E080B400AFFEE700BFC6
:1015500080B582B000AF0346FB71054B1B68FA797A
:101560001146184604F0D2FA00BF0837BD4680BDC8
:1015700058380120000000002DE9F04F2DED028BBE
:10158000C3B004AF4FF000034FF00004C7E932349A
:101590004FF000034FF00004C7E93C344FF0000364
:1015A0004FF00004C7E93A34D74B07F11C0493E825
:1015B000070084E80700D54B186807F128010023CD
:1015C00042F2107203F0FCF90346012B40F0408117
:1015D000B7F92A30184606F009FB41EC180BB7F9A9
:1015E0002C30184606F002FB03460C4644EC113B37
:1015F000B0EE480AF0EE680A04F07AFD51EC100BE8
:10160000BDA3D3E9002306F057FB03460C46C7E908
:101610003034B7F928305B42184606F0E7FA41EC5F
:10162000180BB7F92C30184606F0E0FA03460C46C2
:1016300044EC113BB0EE480AF0EE680A04F058FDA5
:1016400051EC100BACA3D3E9002306F035FB0346A5
:101650000C46C7E92E34D7E90E34984684F0004989
:10166000C7E90E89D7E912341D4684F00046C7E960
:101670001256D7E90E45FB69184606F0C9FA02462C
:101680000B462046294606F063F903460C46C7E997
:101690000E34D7E910453B6A184606F0B9FA0246FF
:1016A0000B462046294606F053F903460C46C7E987
:1016B0001034D7E912457B6A184606F0A9FA0246AB
:1016C0000B462046294606F043F903460C46C7E977
:1016D00012348BA3D3E90023D7E9320106F0ECFAE8
:1016E00003460C46C7E92C3485A3D3E90023D7E988
:1016F0003C0106F0E1FA03460C46C7E92A34D7E973
:10170000124597ED2C0B04F093FC53EC102B204664
:10171000294606F0D1FA03460C469846A146D7E979
:10172000104597ED2C0B04F023FC53EC102B2046B6
:10173000294606F0C1FA03460C461A46234640469F
:10174000494606F005F903460C46C7E92834D7E9AF
:101750000E4597ED2A0B04F00BFC53EC102B2046A2
:10176000294606F0A9FA03460C469846A146D7E951
:10177000104597ED2A0B04F05BFC53EC102B204630
:10178000294606F099FA03460C4625461C4697ED75
:101790002C0B04F04DFC53EC102B2046294606F090
:1017A0008BFA03460C461A4623464046494606F045
:1017B000D1F803460C469846A146D7E9124597ED65
:1017C0002A0B04F035FC53EC102B2046294606F07A
:1017D00073FA03460C4625461C4697ED2C0B04F085
:1017E000C7FB53EC102B2046294606F065FA03464A
:1017F0000C461A4623464046494606F0ABF80346D7
:101800000C46C7E92634D7F8A0303B61D7F8A4309E
:1018100083F000437B6197ED261B97ED040B04F0EA
:1018200067FC51EC100B34A3D3E9002306F044FA13
:1018300003460C46C7E9243497ED300BFFF716FB3F
:1018400097ED2E0BFFF724FB97ED240BFFF732FBF0
:101850002E4B186807F12801002342F2107203F0A2
:10186000AFF80346012BF3D1B7F92A30184606F03A
:10187000BDF904460D46B7F92C30184606F0B6F906
:1018800002460B4643EC112B45EC104B04F030FCA8
:1018900051EC100B18A3D3E9002306F00DFA034610
:1018A0000C46C7E92234B7F928305B42184606F0E7
:1018B0009DF904460D46B7F92C30184606F096F906
:1018C00002460B4643EC112B45EC104B04F010FC88
:1018D00051EC100B08A3D3E9002306F0EDF9034601
:1018E0000C46C7E92034B7F92E30184606F07EF9C9
:1018F0000EE000BFAFF30080B0CB631ADCA54C4014
:101900004DC9077746DF913FB4D10008700A002027
:1019100023A3D3E9002306F0F9FA03460C46C7E9EE
:101920003434B7F93030184606F060F91CA3D3E917
:10193000002306F0EBFA03460C46C7E91E344FF0CD
:101940000002194BD7E9200106F028FC0346002BC2
:1019500009D04FF00002154BD7E93C0106F03CFCE2
:101960000346002B13D14FF00002104BD7E92001A2
:1019700006F032FC0346002B1AD04FF000020A4B4F
:10198000D7E93C0106F00AFC0346002B10D097ED86
:10199000200BFFF77DFAD7E92034C7E93C3411E08A
:1019A0000000000000606040008056C0008056408B
:1019B0009FEDB52B97ED1E1B97ED200BFEF72EFF2D
:1019C00087ED3C0BD7E93C0106F010FC0346002BE9
:1019D000B8BF5B425A2B09DDD7F8D030C7F8D030FA
:1019E000D7F8D43083F00043C7F8D4309FEDA62B4E
:1019F00097ED341B97ED220BFEF77CFD87ED320B44
:101A0000D7E90E349A4684F0004BC7E90EABD7E90C
:101A10001234BB6084F00043FB6097ED027B87EDDE
:101A2000127BD7E90E45FB69184606F0F1F802462D
:101A30000B462046294605F08BFF03460C46C7E9B6
:101A40000E34D7E910453B6A184606F0E1F8024625
:101A50000B462046294605F07BFF03460C46C7E9A6
:101A60001034D7E912457B6A184606F0D1F80246D1
:101A70000B462046294605F06BFF03460C46C7E996
:101A800012347BA3D3E90023D7E9320106F014F91D
:101A900003460C46C7E91C3475A3D3E90023D7E9F4
:101AA0003C0106F009F903460C46C7E91A34D7E9A8
:101AB000124597ED1C0B04F0BBFA53EC102B20469B
:101AC000294606F0F9F803460C469846A146D7E9A0
:101AD000104597ED1C0B04F04BFA53EC102B2046ED
:101AE000294606F0E9F803460C461A4623464046C6
:101AF000494605F02DFF03460C46C7E91834D7E9DF
:101B00000E4597ED1A0B04F033FA53EC102B2046D8
:101B1000294606F0D1F803460C469846A146D7E977
:101B2000104597ED1A0B04F083FA53EC102B204666
:101B3000294606F0C1F803460C4625461C4697ED9B
:101B40001C0B04F075FA53EC102B2046294606F0C6
:101B5000B3F803460C461A4623464046494605F06C
:101B6000F9FE03460C469846A146D7E9124597ED83
:101B70001A0B04F05DFA53EC102B2046294606F0B0
:101B80009BF803460C4625461C4697ED1C0B04F0BB
:101B9000EFF953EC102B2046294606F08DF803464A
:101BA0000C461A4623464046494605F0D3FE0346F6
:101BB0000C46C7E916343B6E3B607B6E83F00043F6
:101BC0007B6097ED161B97ED000B04F091FA51EC3A
:101BD000100B29A3D3E9002306F06EF803460C4648
:101BE000C7E92434B7F93230184605F0FFFF24A3C3
:101BF000D3E9002306F08AF903460C46C7E91434FA
:101C00004FF00002184BD7E9240106F0C7FA03464B
:101C1000002B09D04FF00002144BD7E93A0106F02F
:101C2000DBFA0346002B13D14FF000020F4BD7E92C
:101C3000240106F0D1FA0346002B29D04FF0000210
:101C4000094BD7E93A0106F0A9FA0346002B1FD049
:101C500097ED240BFFF72EF9D7E92434C7E93A347E
:101C600020E000BFAFF30080008056C000805640E7
:101C70004DC9077746DF913FB0CB631ADCA54C40D6
:101C800000000000006060400000000000005940BB
:101C90001FED032B97ED141B97ED240BFEF752FF5E
:101CA00087ED3A0BD7F8E40005F0A0FF03460C4699
:101CB0001A462346D7E93A0105F04AFE03460C4688
:101CC000184621464FF00002AE4B06F085FA034657
:101CD000002B3FD1D7F8E40005F088FF03460C46FF
:101CE0001A462346D7E93A0105F032FE03460C4670
:101CF000184621464FF00002A34B06F04FFA034668
:101D0000002B27D1D7F8E40005F070FFD7E93A237C
:101D100005F01EFE03460C46184621464FF0000211
:101D2000984B06F059FA0346002B13D1D7F8E4007C
:101D300005F05CFFD7E93A2305F00AFE03460C469E
:101D4000184621464FF000028F4B06F027FA034653
:101D5000002B07D0D7E93A0106F048FA0346C7F846
:101D6000E43007E0D7F8E40005F040FF03460C46F6
:101D7000C7E93A34D7F8E40005F038FF03460C46CB
:101D8000C7E93A34D7F8E00005F030FF03460C46C7
:101D90001A462346D7E93C0105F0DAFD03460C4616
:101DA000184621464FF00002764B06F015FA03461E
:101DB000002B3FD1D7F8E00005F018FF03460C4692
:101DC0001A462346D7E93C0105F0C2FD03460C46FE
:101DD000184621464FF000026B4B06F0DFF9034630
:101DE000002B27D1D7F8E00005F000FFD7E93C230E
:101DF00005F0AEFD03460C46184621464FF00002A2
:101E0000604B06F0E9F90346002B13D1D7F8E00048
:101E100005F0ECFED7E93C2305F09AFD03460C469D
:101E2000184621464FF00002574B06F0B7F903461B
:101E3000002B07D0D7E93C0106F0D8F90346C7F8D4
:101E4000E03007E0D7F8E00005F0D0FE03460C468E
:101E5000C7E93C34D7F8E00005F0C8FE03460C465D
:101E6000C7E93C34D7F8DC0005F0C0FE03460C4659
:101E70001A462346D7E9320105F06AFD03460C46AF
:101E8000184621464FF000023E4B06F0A5F90346E6
:101E9000002B3FD1D7F8DC0005F0A8FE03460C4626
:101EA0001A462346D7E9320105F052FD03460C4697
:101EB000184621464FF00002334B06F06FF90346F7
:101EC000002B27D1D7F8DC0005F090FED7E93223AC
:101ED00005F03EFD03460C46184621464FF0000231
:101EE000284B06F079F90346002B13D1D7F8DC0014
:101EF00005F07CFED7E9322305F02AFD03460C46A7
:101F0000184621464FF000021F4B06F047F90346E2
:101F1000002B07D0D7E9320106F068F90346C7F86D
:101F2000DC3007E0D7F8DC0005F060FE03460C4625
:101F3000C7E93234D7F8DC0005F058FE03460C46FA
:101F4000C7E932341149124806F0B0FAD7E9323401
:101F5000CDE90234D7E93C34CDE90034D7E93A235E
:101F60000C4806F0A3FAD7E92234CDE90234D7E9C8
:101F70002034CDE90034D7E92423074806F096FA47
:101F800066E400BF0000F03F0000F0BF88D1000809
:101F900098D100089CD10008A8D1000890B59DB048
:101FA00000AF786007F1540303220221184601F0C4
:101FB00019FD0346002B03D0224806F0BFFAFEE7C6
:101FC000642000F0D3FFFEF787FF00237B6307F157
:101FD0005403184601F0C6FDB7F960303B81B7F9EC
:101FE00062307B81B7F96430BB81B7F96630FB8121
:101FF000B7F968303B82B7F96A307B8207F1380263
:1020000007F1400107F148031846FEF7C1FFD7E981
:102010001234C7E90634D7E91034C7E90834D7E9E0
:102020000E34C7E90A34084B186807F10801002389
:102030000A2202F037FB07F134036421184600F04E
:102040001BFFC4E7C0D10008700A002080B582B031
:1020500002AF01F0A1FE01F0D5FEFEF7C3F80022A9
:1020600028210A2002F0C4FA0246214B1A604FF4DC
:1020700000734FF400724FF4E131002003F0BAFC1A
:1020800002461C4B1A601C4B1B6819461B4806F085
:102090000DFA1B4806F052FA00220E21062000F02D
:1020A00081FD0246174B1A6000220D21062000F028
:1020B00079FD0246144B1A6000230193012300931B
:1020C00000234FF4E1721149114800F0B1FD0023E3
:1020D00001930123009300234FF4E1720B490D4853
:1020E00000F0A6FD00F076FF0B4806F0DFF9FEE7F2
:1020F000700A00205838012070000020DCD1000850
:1021000020D20008543801205038012034D2000871
:10211000791500089D1F000840D2000880B489B0DE
:1021200000AF78600023BB6100237B610023FB616B
:1021300002233B610023FB600223BB60484B9B688A
:1021400003F00C03BB61BB69042B07D0082B09D03B
:10215000002B3FD17B68434A1A603FE07B68424ACC
:102160001A603BE03E4B5B6803F480039B0DFB6011
:102170003B4B5B6803F03F03BB60FB68002B0DD05B
:10218000394ABB68B2FBF3F2354B596847F6C07366
:102190000B409B0903FB02F3FB610CE0314ABB6877
:1021A000B2FBF3F22E4B596847F6C0730B409B0904
:1021B00003FB02F3FB612A4B5B6803F440331B0C07
:1021C00001335B003B61FA693B69B2FBF3F27B6868
:1021D0001A6003E07B68234A1A6000BF204B9B68AB
:1021E00003F0F003BB61BB691B09BB611F4ABB69FC
:1021F00013441B78DBB27B617B681A687B69DA4029
:102200007B685A60164B9B6803F4E053BB61BB6963
:102210009B0ABB61154ABB6913441B78DBB27B6127
:102220007B685A687B69DA407B689A600C4B9B68D4
:1022300003F46043BB61BB695B0BBB610B4ABB69C9
:1022400013441B78DBB27B617B685A687B69DA4098
:102250007B68DA6000BF2437BD465DF8047B7047B9
:10226000003802400024F40000127A0060000020D0
:1022700080B483B000AF78600B46FB70FB78002B16
:1022800006D00A49094B1A6B7B6813430B6306E0BF
:102290000649064B1A6B7B68DB4313400B6300BF98
:1022A0000C37BD465DF8047B704700BF0038024024
:1022B00080B483B000AF78600B46FB70FB78002BD6
:1022C00006D00A49094B1A6C7B6813430B6406E07D
:1022D0000649064B1A6C7B68DB4313400B6400BF56
:1022E0000C37BD465DF8047B704700BF00380240E4
:1022F00080B483B000AF78600B46FB70FB78002B96
:1023000006D00A49094B5A6C7B6813434B6406E0BC
:102310000649064B5A6C7B68DB4313404B6400BF95
:102320000C37BD465DF8047B704700BF00380240A3
:1023300080B483B000AF78600B46FB70FB78002B55
:1023400006D00A49094B1A6A7B6813430B6206E000
:102350000649064B1A6A7B68DB4313400B6200BFD9
:102360000C37BD465DF8047B704700BF0038024063
:1023700080B400AFFEE700BF80B400AFFEE700BF4F
:1023800080B400AFFEE700BF80B400AFFEE700BF3F
:1023900080B400AFFEE700BF80B400AF00BFBD4611
:1023A0005DF8047B704700BF80B400AF00BFBD463E
:1023B0005DF8047B704700BF80B400AF00BFBD462E
:1023C0005DF8047B704700BF80B584B002AF002386
:1023D0007B6000F08FFA114B1B68002B0BD0104B69
:1023E00001930923009300234FF402720D490E4814
:1023F00000F01EFC78607B68002B09D14FF0500381
:1024000083F31188BFF36F8FBFF34F8F3B60FEE7FD
:102410007B6818460837BD4680BD00BFA40A00206F
:10242000A80A002080D200084525000880B58AB09F
:1024300000AFF860B9607A603B6000237B62FB68A4
:10244000002B09D14FF0500383F31188BFF36F8F36
:10245000BFF34F8F3B62FEE7194B1B68002B2AD05E
:10246000BB687B617B68BB61FB68FB61BB68052B5C
:1024700018DC01F06DF90346022B09D1104B1868E6
:1024800007F1140100233A6B02F00CF9786212E0B4
:102490000B4B186807F114010023002202F002F927
:1024A000786208E0064B186807F1140100233A68C7
:1024B00002F0F2F978627B6A18462837BD4680BD83
:1024C000A40A002080B588B002AF786039601C4B48
:1024D0001B68DB68DB687B617B690433184601F0AD
:1024E00031FC7B69DB69012B21D17B699A697B68AF
:1024F000D1187B683A68786900F0C8F80346002B69
:1025000015D00023009300237A6800217869FFF733
:102510008DFF38613B69002B09D14FF0500383F3E5
:102520001188BFF36F8FBFF34F8FFB60FEE77B69AE
:102530005B6A7869984700BF1837BD4680BD00BF09
:102540009C0A002080B584B000AF786007F10803D2
:10255000184600F057F8F860BB681946F86800F0B4
:1025600003F800F0D5F8F1E780B584B000AF7860EB
:10257000396000F07BFD07F10803184600F066F8AB
:10258000F860BB68002B30D13B68002B0AD17A6819
:10259000FB689A4206D800F077FDF9687868FFF783
:1025A00091FF24E03B68002B08D0134B1B681B688D
:1025B000002B0CBF01230023DBB23B600F4B1868DC
:1025C0007A68FB68D31A3A68194602F09DFC00F05D
:1025D0005BFD0346002B0AD1094B4FF080521A6075
:1025E000BFF34F8FBFF36F8F01E000F04DFD00BFD1
:1025F0001037BD4680BD00BFA00A0020A40A0020FD
:1026000004ED00E080B485B000AF78600E4B1B682D
:102610001B68002B0CBF01230023DBB21A467B682A
:102620001A607B681B68002B05D1074B1B68DB68B1
:102630001B68FB6001E00023FB60FB681846143751
:10264000BD465DF8047B70479C0A002080B584B0CD
:1026500000AF786000F0B4FDF8600B4B1B68FA68BF
:102660009A4205D200F0E6F87B6801221A6002E087
:102670007B6800221A60044AFB681360FB681846F6
:102680001037BD4680BD00BFAC0A002080B586B0C3
:1026900000AFF860B9607A603B6000237B61FB6843
:1026A000BA685A60FB68FA681A61BA687B689A422D
:1026B00012D87A683B68D21AFB689B699A4202D3A7
:1026C00001237B611BE0104B1A68FB680433194639
:1026D000104601F0FDFA12E07A683B689A4206D291
:1026E000BA683B689A4202D301237B6107E0074B3B
:1026F0001A68FB6804331946104601F0E9FA7B6951
:1027000018461837BD4680BDA00A00209C0A00204C
:1027100080B58CB002AF7AE0BB68002B77DB3B69F9
:102720007B627B6A5B69002B04D07B6A04331846AA
:1027300001F008FB3B1D1846FFF788FF3862BB68B5
:10274000092B63D801A252F823F000BF75270008B7
:1027500075270008752700080F280008CF270008F4
:102760000528000875270008752700080F280008AD
:10277000CF270008FA687B6A9B69D118FB683A6A20
:10278000786AFFF783FF0346002B40D07B6A5B6AC1
:10279000786A98477B6ADB69012B38D1FA687B6AD3
:1027A0009B691A440023009300230021786AFFF7F5
:1027B0003DFEF861FB69002B29D14FF0500383F3F4
:1027C0001188BFF36F8FBFF34F8F7B61FEE7FA680D
:1027D0007B6A9A617B6A9B69002B09D14FF0500399
:1027E00083F31188BFF36F8FBFF34F8FBB61FEE799
:1027F0007B6A9A693B6AD1183B6A3A6A786AFFF742
:1028000045FF04E0786A02F015FE00E000BF084BC7
:10281000186807F108010023002202F0D1F80346EE
:10282000002B7FF479AF00BF2837BD4680BD00BFC5
:10283000A40A002080B588B002AF44E02B4B1B688F
:10284000DB681B687B61294B1B68DB68DB683B61CD
:102850003B690433184601F075FA3B695B6A3869D5
:1028600098473B69DB69012B2DD13B699A697B69EC
:102870001344FB60FA687B699A420ED93B69FA6897
:102880005A603B693A691A61184B1A683B6904330C
:102890001946104601F01CFA15E0002300930023AE
:1028A0007A6900213869FFF7C1FDB860BB68002B69
:1028B00009D14FF0500383F31188BFF36F8FBFF33B
:1028C0004F8F3B60FEE7094B1B681B68002BB5D19F
:1028D000064B1B687B60064B1B68044A1360044A66
:1028E0007B68136000BF1837BD4680BD9C0A00207E
:1028F000A00A002080B500AF01F002FD124B1B685A
:10290000002B1DD1114801F091F9114801F08EF909
:10291000104B0E4A1A60104B0D4A1A6000220C210F
:10292000142001F065FE0246074B1A60064B1B6837
:10293000002B05D0044B1B680849184602F0BCFA6E
:1029400001F00CFD00BF80BDA40A0020740A002025
:10295000880A00209C0A0020A00A002088D20008D3
:1029600080B485B000AF0346FB710023FB60FB79A8
:10297000082B30D801A252F823F000BFA12900088B
:10298000A7290008AD290008B3290008B9290008C3
:10299000BF290008C5290008CB290008D129000853
:1029A000114BFB6018E0114BFB6015E0104BFB6016
:1029B00012E0104BFB600FE00F4BFB600CE00F4B85
:1029C000FB6009E00E4BFB6006E00E4BFB6003E092
:1029D0000D4BFB6000E000BFFB6818461437BD4696
:1029E0005DF8047B704700BF000002400004024015
:1029F00000080240000C0240001002400014024097
:102A000000180240001C02400020024080B485B043
:102A100000AF0346FB711023FB81FB790F2B5BD8C2
:102A200001A252F823F000BF692A00086F2A0008AB
:102A3000752A00087B2A0008812A0008872A0008D6
:102A40008D2A0008932A0008992A0008A12A000864
:102A5000A92A0008B12A0008B92A0008C12A0008DA
:102A6000C92A0008D12A00080123FB8135E002238E
:102A7000FB8132E00423FB812FE00823FB812CE063
:102A80001023FB8129E02023FB8126E04023FB81EA
:102A900023E08023FB8120E04FF48073FB811CE066
:102AA0004FF40073FB8118E04FF48063FB8114E066
:102AB0004FF40063FB8110E04FF48053FB810CE086
:102AC0004FF40053FB8108E04FF48043FB8104E0A6
:102AD0004FF40043FB8100E000BFFB891846143728
:102AE000BD465DF8047B704780B485B000AF0346F7
:102AF000FB710123FB73FB79002B02D0012B03D068
:102B000005E00123FB7302E00023FB7300BFFB7BA6
:102B100018461437BD465DF8047B704780B485B015
:102B200000AF0346FB710023FB60FB79082B31D813
:102B300001A252F823F000BF5D2B0008632B0008B0
:102B4000692B00086F2B0008752B00087B2B0008F1
:102B5000812B0008872B00088D2B00080123FB60C8
:102B600018E00223FB6015E00423FB6012E0082359
:102B7000FB600FE01023FB600CE02023FB6009E00A
:102B80004023FB6006E08023FB6003E04FF480738A
:102B9000FB6000BFFB6818461437BD465DF8047B38
:102BA000704700BF80B586B000AF0346FB710B468F
:102BB000BB7113467B71032002F0F6FB78617B69E1
:102BC000002B01D100232FE07B69FA795A707B69D1
:102BD000BA791A707B697A799A70FB791846FFF78F
:102BE000BFFE38617B791846FFF77EFF03463B73D3
:102BF0000023BB73BB791846FFF708FF0346BB6091
:102C00000023FB7301237B73FB791846FFF786FFD4
:102C1000034601211846FFF72BFB07F1080319466D
:102C2000386900F007FE7B6918461837BD4680BD3D
:102C300080B58CB004AFF860B9603B601346FB8090
:102C4000FB889B00184602F0AFFB78617B69002B84
:102C50000ED05C2002F0A8FBF861FB69002B03D0CA
:102C6000FB697A691A6305E0786902F0E3FB01E029
:102C70000023FB61FB69002B13D0FA880023039328
:102C8000FB690293FB6A0193BB6A00933B68B968D6
:102C9000F86800F00FF8F86900F084F80123BB61D0
:102CA00002E04FF0FF33BB61BB6918462037BD46D9
:102CB00080BD00BF80B588B000AFF860B9607A60B1
:102CC0003B603B6B1A6B7B6803F18043013B9B00CD
:102CD0001344BB61BB6923F00703BB61BB6903F00D
:102CE0000703002B09D04FF0500383F31188BFF383
:102CF0006F8FBFF34F8F7B61FEE70023FB6112E014
:102D0000BA68FB69134419783A6BFB69134434338E
:102D10000A461A70BA68FB6913441B78002B06D068
:102D2000FB690133FB61FB691D2BE9D900E000BFA2
:102D30003B6B002283F85120BB6A092B01D9092380
:102D4000BB623B6BBA6ADA623B6B0433184600F035
:102D50008DFF3B6B1833184600F088FF3B6B3A6BD6
:102D60001A61BB6AC3F10A023B6B9A613B6B3A6B17
:102D70005A623B6B00225A653B6B002283F8582055
:102D80003A68F968B86901F0B7F902463B6B1A6016
:102D9000FB6A002B02D0FB6A3A6B1A6000BF203737
:102DA000BD4680BD80B582B000AF786001F0A8FA62
:102DB0002A4B1B680133294A1360294B1B68002BDF
:102DC00009D1274A7B681360244B1B68012B10D163
:102DD00000F05AFC0DE0234B1B68002B09D1204B5F
:102DE0001B68DA6A7B68DB6A9A4202D81C4A7B68F5
:102DF00013601D4B1B6801331B4A13607B68DB6A41
:102E000001229A40194B1B681343184A13607B68D0
:102E1000DA6A13469B0013449B00154A1A447B68E8
:102E200004331946104600F02FFF01F097FA0D4BBE
:102E30001B68002B0ED00A4B1B68DA6A7B68DB6AC2
:102E40009A4207D20B4B4FF080521A60BFF34F8F5C
:102E5000BFF36F8F00BF0837BD4680BDC00B002099
:102E6000B00A0020CC0B0020DC0B0020C80B002097
:102E7000B40A002004ED00E080B58AB000AF7860AD
:102E8000396000237B627B68002B09D14FF050032F
:102E900083F31188BFF36F8FBFF34F8FFB60FEE7A3
:102EA0003B68002B09D14FF0500383F31188BFF327
:102EB0006F8FBFF34F8F3B61FEE7294B1B68002BE1
:102EC00009D04FF0500383F31188BFF36F8FBFF326
:102ED0004F8F7B61FEE700F0C9F8224B1B683B6215
:102EE0007B681A683B681344FB617B681A683B6A1D
:102EF0009A420BD97B681A68FB699A4211D9FA6920
:102F00003B6A9A420DD901237B620AE07B681A680A
:102F1000FB699A4203D8FA693B6A9A4201D90123B4
:102F20007B627B68FA691A607B6A002B06D0FA69BB
:102F30003B6AD31A0021184600F028FC00F0A4F8E0
:102F4000B861BB69002B07D1074B4FF080521A6064
:102F5000BFF34F8FBFF36F8F00BF2837BD4680BDD3
:102F6000E80B0020C40B002004ED00E080B584B025
:102F700000AF78600023FB607B68002B16D0134BFA
:102F80001B68002B09D04FF0500383F31188BFF367
:102F90006F8FBFF34F8FBB60FEE700F067F8002133
:102FA000786800F0F3FB00F06FF8F860FB68002B26
:102FB00007D1074B4FF080521A60BFF34F8FBFF31A
:102FC0006F8F00BF1037BD4680BD00BFE80B0020EB
:102FD00004ED00E080B586B002AF1E4B01930023E4
:102FE0000093002382221C491C48FFF721FEF86051
:102FF000FB68012B02D1FFF7E7F9F860FB68012BB2
:1030000015D14FF0500383F31188BFF36F8FBFF3D7
:103010004F8F7B60124B4FF0FF321A60114B012231
:103020001A60114B00221A6001F0DEF80DE0FB6817
:10303000B3F1FF3F09D14FF0500383F31188BFF381
:103040006F8FBFF34F8FBB60FEE700BF1037BD46E9
:1030500080BD00BFE40B002090D200087936000844
:10306000E00B0020CC0B0020C40B002080B400AF8C
:10307000044B1B680133034A136000BFBD465DF873
:10308000047B7047E80B002080B584B000AF0023BC
:10309000FB600023BB60414B1B68002B09D14FF044
:1030A000500383F31188BFF36F8FBFF34F8F3B60E3
:1030B000FEE701F025F9394B1B68013B374A1360E5
:1030C000364B1B68002B61D1354B1B68002B5DD044
:1030D0002EE0344BDB68DB68FB60FB681833184676
:1030E00000F030FEFB680433184600F02BFEFB684E
:1030F000DB6A01229A402C4B1B6813432A4A136057
:10310000FB68DA6A13469B0013449B00274A1A4463
:10311000FB6804331946104600F0B6FDFB68DA6A16
:10312000234B1B68DB6A9A4202D3224B01221A60AE
:103130001C4B1B68002BCCD1FB68002B01D000F08E
:10314000E1FA1D4B1B687B607B68002B10D000F000
:1031500047F80346002B02D0164B01221A607B6809
:10316000013B7B607B68002BF1D1134B00221A607E
:10317000104B1B68002B09D00123BB600F4B4FF095
:1031800080521A60BFF34F8FBFF36F8F01F0E6F8E4
:10319000BB6818461037BD4680BD00BFE80B002055
:1031A000C00B0020AC0B0020C80B0020B40A00208C
:1031B000B00A0020D40B0020D00B002004ED00E06A
:1031C00080B483B000AF054B1B687B607B681846FA
:1031D0000C37BD465DF8047B704700BFC40B002070
:1031E00080B586B000AF00237B61504B1B68002B7D
:1031F00040F08C804E4B1B6801333B614C4A3B696D
:1032000013603B69002B1FD14A4B1B681B68002BC6
:1032100009D04FF0500383F31188BFF36F8FBFF3D2
:103220004F8F3B60FEE7434B1B68FB60424B1B68C4
:10323000404A1360404AFB681360404B1B680133EF
:103240003E4A136000F05EFA3D4B1B683A699A42B1
:103250004DD3384B1B681B68002B01D1012300E0C4
:103260000023002B04D0364B4FF0FF321A603EE0B3
:10327000304B1B68DB68DB68BB60BB685B687B60EE
:103280003A697B689A4203D22D4A7B6813602EE02C
:10329000BB680433184600F055FDBB689B6A002BE1
:1032A00004D0BB681833184600F04CFDBB68DB6ADD
:1032B00001229A40234B1B681343224A1360BB68C8
:1032C000DA6A13469B0013449B001F4A1A44BB68EA
:1032D00004331946104600F0D7FCBB68DA6A1B4B72
:1032E0001B68DB6A9A42B4D301237B61B1E7174BB9
:1032F0001B68DA6A144913469B0013449B000B4475
:103300001B68012B07D901237B6104E0104B1B686C
:1033100001330F4A13600F4B1B68002B01D00123B0
:103320007B617B6918461837BD4680BDE80B0020DD
:10333000C40B0020A40B0020A80B0020D80B0020F9
:10334000E00B0020C80B0020B40A0020B00A0020C7
:10335000D00B0020D40B002080B487B000AF264BE8
:103360001B68002B03D0254B01221A603EE0234B43
:1033700000221A60224B1B68BB60BB68B3FA83F360
:10338000FB71FB79C3F11F033B611E493A69134688
:103390009B0013449B000B441B68002B09D14FF08A
:1033A000500383F31188BFF36F8FBFF34F8F7B619F
:1033B000FEE73A6913469B0013449B00114A1344ED
:1033C000FB60FB685B685A68FB685A60FB685A6878
:1033D000FB6808339A4204D1FB685B685A68FB6853
:1033E0005A60FB685B68DB68074A136000BF1C37E4
:1033F000BD465DF8047B7047E80B0020D40B00202D
:10340000C80B0020B40A0020B00A002080B584B0A8
:1034100000AF786039607B68002B09D14FF0500312
:1034200083F31188BFF36F8FBFF34F8FFB60FEE70D
:10343000074B1B6818331946786800F049FC0121D6
:10344000386800F0A3F900BF1037BD4680BD00BF4B
:10345000B00A002080B586B000AFF860B9607A602D
:10346000FB68002B09D14FF0500383F31188BFF3A1
:103470006F8FBFF34F8F7B61FEE70A4B1B681833DA
:103480001946F86800F000FC7B68002B02D04FF072
:10349000FF33BB607968B86800F078F900BF18376F
:1034A000BD4680BDB00A002080B586B000AF786010
:1034B0007B68DB68DB683B613B69002B09D14FF01F
:1034C000500383F31188BFF36F8FBFF34F8FFB60FF
:1034D000FEE73B691833184600F034FC1D4B1B68AF
:1034E000002B1CD13B690433184600F02BFC3B69D0
:1034F000DB6A01229A40184B1B681343164A13607B
:103500003B69DA6A13469B0013449B00134A1A4432
:103510003B6904331946104600F0B6FB05E03B69F1
:10352000183319460E4800F0AFFB3B69DA6A0D4BC1
:103530001B68DB6A9A4205D901237B610A4B012291
:103540001A6001E000237B617B6918461837BD468D
:1035500080BD00BFE80B0020C80B0020B40A00208B
:10356000AC0B0020B00A0020D40B002080B485B042
:1035700000AF78607B68002B09D14FF0500383F3D4
:103580001188BFF36F8FBFF34F8FFB60FEE7074BD0
:103590001A687B681A60064B1A687B685A6000BF1D
:1035A0001437BD465DF8047B704700BFD80B002080
:1035B000C40B002080B586B000AF786039607B68AE
:1035C000002B09D14FF0500383F31188BFF36F8FA5
:1035D000BFF34F8FBB60FEE73B68002B09D14FF074
:1035E000500383F31188BFF36F8FBFF34F8FFB60DE
:1035F000FEE700F085FE184B1B683B617B681A688C
:10360000164B1B689A4207D07B685A683B699A42FE
:1036100002D801237B6118E07B685B683A69D21AA3
:103620003B681B689A420ED23B681A687B685968EF
:103630003B69CB1A1A443B681A607868FFF796FF1B
:1036400000237B6101E001237B6100F087FE7B6941
:1036500018461837BD4680BDC40B0020D80B00208B
:1036600080B400AF034B01221A6000BFBD465DF875
:10367000047B7047D40B002080B582B000AF786027
:1036800000F038F8FCE700BF80B582B000AF00233F
:103690007B600CE07A6813469B0013449B000F4A42
:1036A0001344184600F0C2FA7B6801337B607B68E4
:1036B000092BEFD90A4800F0B9FA0A4800F0B6FA27
:1036C000094800F0B3FA094B054A1A60084B054A4D
:1036D0001A6000BF0837BD4680BD00BFB40A002095
:1036E0007C0B0020900B0020AC0B0020A40B0020D2
:1036F000A80B002080B400AF00BFBD465DF8047B7E
:10370000704700BF80B483B000AF0F4B1B681B68CD
:10371000002B01D1012300E00023002B04D00B4B30
:103720004FF0FF321A6008E0074B1B68DB68DB686C
:103730007B607B685B68054A136000BF0C37BD4641
:103740005DF8047B704700BFA40B0020E00B002055
:1037500080B483B000AF0B4B1B68002B02D1012358
:103760007B6008E0084B1B68002B02D102237B60C2
:1037700001E000237B607B6818460C37BD465DF88E
:10378000047B7047CC0B0020E80B002080B584B090
:1037900000AF78603960214B1B68FB60204B1B68D1
:1037A0000433184600F0CEFA0346002B0BD11C4B15
:1037B0001B68DB6A012202FA03F3DA43194B1B6828
:1037C0001340184A1360FA687B681344BB60144BBB
:1037D0001B68BA685A60BA68FB689A4209D2124BF1
:1037E0001A680F4B1B6804331946104600F070FA34
:1037F00010E00E4B1A680A4B1B680433194610463A
:1038000000F066FA0A4B1B68BA689A4202D2084A6C
:10381000BB68136000BF1037BD4680BDC40B0020DD
:10382000B00A0020C80B0020A80B0020A40B002029
:10383000E00B002080B487B000AF786039600023CF
:103840007B6100233B610023FB6000237B6176E00A
:1038500001227B6902FA03F33B613B681A683B690A
:103860001340FB60FA683B699A4265D17B681A682D
:103870007B695B00032101FA03F3DB431A407B6899
:103880001A607B681A683B681B7919467B695B0084
:1038900001FA03F31A437B681A603B681B79012B1A
:1038A00003D03B681B79022B2ED17B689A687B6919
:1038B0005B00032101FA03F3DB431A407B689A6043
:1038C0007B689A683B685B7919467B695B0001FA03
:1038D00003F31A437B689A607B685A687B699BB2E2
:1038E000012101FA03F3DB431A407B685A607B68CD
:1038F0005A683B689B7919467B699BB201FA03F3CE
:103900009BB21A437B685A607B68DA687B699BB21A
:103910005B00032101FA03F3DB431A407B68DA60A2
:103920007B68DA683B68DB7919467B695B0001FAE2
:1039300003F31A437B68DA607B6901337B617B693F
:103940000F2B85D900BF1C37BD465DF8047B70473F
:1039500080B485B000AF78600B467B8013467B70E7
:103960000023FB600023BB607A787B8803F00703A9
:103970009B0002FA03F3FB607B88DB089BB21846CE
:103980007B88DB089BB21A467B68083253F82220FA
:103990007B8803F007039B000F2101FA03F3DB434D
:1039A00002EA03017B6800F1080243F822107B88D9
:1039B000DB089BB21A467B68083253F82220FB686A
:1039C0001343BB607B88DB089BB21A467B680832D6
:1039D000B96843F8221000BF1437BD465DF8047B78
:1039E000704700BF80B584B000AF78600B46FB70B5
:1039F0001346BB707B68D0221A70FCF7F3FB7B6820
:103A00001B7875211846FCF785FC0346682B01D00E
:103A100002239AE07B681B7800226A211846FCF793
:103A20002BFC7B681B7837211846FCF773FC034698
:103A3000FB7397F90F3023F01A035BB243F00203D4
:103A40005BB2FB737B681B78FA7B37211846FCF767
:103A500013FC7B681B7800226B211846FCF70CFCDA
:103A60007B681B781C211846FCF754FC0346FB734B
:103A700097F90F3023F018035AB2FB78DB005BB2E2
:103A800013435BB2FB737B681B78FA7B1C211846DF
:103A9000FCF7F2FB7B681B781B211846FCF73AFC0D
:103AA0000346FB7397F90F3023F018035AB2BB7823
:103AB000DB005BB213435BB2FB737B681B78FA7B62
:103AC0001B211846FCF7D8FBFB78032B1DD801A25D
:103AD00052F823F0E53A0008EF3A0008F93A0008F6
:103AE000033B00087B684FF062529A600EE07B68EF
:103AF0004FF064529A6009E07B684FF066529A601A
:103B000004E07B684FF068529A6000BFBB78032BDB
:103B100019D801A252F823F0293B0008313B0008D4
:103B2000393B0008413B00087B680A4A5A600BE0B9
:103B30007B68094A5A6007E07B68084A5A6003E0DC
:103B40007B68074A5A6000BF002318461037BD46FD
:103B500080BD00BF2D23FA3B2D237A3C90C1F93C58
:103B600090C1793D80B586B000AF78607B681878E9
:103B700007F108020E233B21FCF73CFC3B7A1B02B9
:103B80001AB27B7A1BB213431AB27B689A81BB7A52
:103B90001B021AB2FB7A1BB213431AB27B68DA819A
:103BA0003B7B1B021AB27B7B1BB213431AB27B68AE
:103BB0001A82BB7B1B021AB2FB7B1BB21343FB8234
:103BC000B7F9163007EE903AB8EEE77ADFED156AEE
:103BD000C7EE267A9FED147A77EE877A7B68C3ED7D
:103BE000067A3B7C1B021AB27B7C1BB213431AB2CF
:103BF0007B685A82BB7C1B021AB2FB7C1BB213434C
:103C00001AB27B689A823B7D1B021AB27B7D1BB283
:103C100013431AB27B68DA82002318461837BD4670
:103C200080BD00BF0000AA43B81E124280B483B01A
:103C300000AF78607B6803F108027B685A607B689C
:103C40004FF0FF329A607B6803F108027B68DA600C
:103C50007B6803F108027B681A617B6800221A60A6
:103C600000BF0C37BD465DF8047B704780B483B05D
:103C700000AF78607B6800221A6100BF0C37BD4638
:103C80005DF8047B704700BF80B485B000AF7860FA
:103C900039607B685B68FB603B68FA685A60FB6868
:103CA0009A683B689A60FB689B683A685A60FB6850
:103CB0003A689A603B687A681A617B681B685A1C8C
:103CC0007B681A6000BF1437BD465DF8047B7047FF
:103CD00080B485B000AF786039603B681B68BB601A
:103CE000BB68B3F1FF3F03D17B681B69FB600CE04D
:103CF0007B680833FB6002E0FB685B68FB60FB6885
:103D00005B681A68BB689A42F6D9FB685A683B68D8
:103D10005A603B685B683A689A603B68FA689A60E8
:103D2000FB683A685A603B687A681A617B681B686E
:103D30005A1C7B681A6000BF1437BD465DF8047BCF
:103D4000704700BF80B485B000AF78607B681B69A6
:103D5000FB607B685B687A6892689A607B689B68A6
:103D60007A6852685A60FB685A687B689A4203D145
:103D70007B689A68FB685A607B6800221A61FB685E
:103D80001B685A1EFB681A60FB681B6818461437CC
:103D9000BD465DF8047B704780B500AF164A164BF0
:103DA000D3F8883043F47003C2F88830134A134BB9
:103DB0001B6843F001031360104B00229A600F4A06
:103DC0000E4B1B6823F0847323F4803313600B4B7A
:103DD0000B4A5A60094A094B1B6823F4802313607D
:103DE000064B0022DA6000F08BF8034B4FF00062C4
:103DF0009A6000BF80BD00BF00ED00E000380240C7
:103E00001030002480B487B000AF00233B61002352
:103E10007B610223FB600023BB6002237B60334B8A
:103E20009B6803F00C033B613B69042B07D0082B14
:103E300009D0002B3FD12E4B2E4A1A603FE02C4B6D
:103E40002D4A1A603BE0294B5B6803F480039B0D0D
:103E5000BB60264B5B6803F03F037B60BB68002BB5
:103E60000DD0254A7B68B2FBF3F2204B596847F628
:103E7000C0730B409B0903FB02F37B610CE01D4AFE
:103E80007B68B2FBF3F2194B596847F6C0730B40DD
:103E90009B0903FB02F37B61144B5B6803F4403323
:103EA0001B0C01335B00FB607A69FB68B2FBF3F328
:103EB0000F4A136003E00E4B0E4A1A6000BF0B4B13
:103EC0009B6803F0F0031B090C4AD35CDBB23B6137
:103ED000074B1A683B6922FA03F3054A136000BFD7
:103EE0001C37BD465DF8047B704700BF00380240B8
:103EF000700000200024F40000127A0074000020FA
:103F000080B483B000AF00237B6000233B60364A5F
:103F1000354B1B6843F480331360334B1B6803F449
:103F200000333B607B6801337B603B68002B03D12F
:103F30007B68B3F5A06FF0D12B4B1B6803F4003303
:103F4000002B02D001233B6001E000233B603B6873
:103F5000012B42D1244A244B1B6C43F08053136441
:103F6000224A224B1B6843F4804313601E4A1E4BB7
:103F70009B6893601C4A1C4B9B6843F4004393600E
:103F8000194A194B9B6843F4A0539360164B184A87
:103F90005A60154A144B1B6843F08073136000BFCE
:103FA000114B1B6803F00073002BF9D0114B40F24A
:103FB00005621A600C4A0C4B9B6823F00303936064
:103FC000094A094B9B6843F00203936000BF064B0C
:103FD0009B6803F00C03082BF9D100BF0C37BD46DA
:103FE0005DF8047B704700BF00380240007000405D
:103FF00008544007003C024080B485B000AF7860B0
:104000000B4B1B68002B02D1094B0A4A1A60084B64
:104010001B68FB60064B1A687B681344044A1360F4
:10402000FB6818461437BD465DF8047B704700BF37
:10403000EC0B0020A038012080B483B000AF786082
:104040004FF0FF3318460C37BD465DF8047B7047D0
:1040500080B483B000AF786039603B684FF40052A1
:104060005A60002318460C37BD465DF8047B704744
:1040700080B483B000AF7860012318460C37BD468A
:104080005DF8047B704700BF80B485B000AFF86076
:10409000B9607A60002318461437BD465DF8047B8A
:1040A000704700BF80B485B000AFF860B9607A6037
:1040B0007B6818461437BD465DF8047B704700BF27
:1040C00080B586B000AFF860B9607A6000237B618C
:1040D00009E0BB685A1CBA601B781846FDF738FA2D
:1040E0007B6901337B617A697B689A42F1DB7B688B
:1040F00018461837BD4680BD80B485B000AFF86063
:10410000B9607A60FB68043BFB60FB684FF080722B
:104110001A60FB68043BFB60BB6823F00102FB688C
:104120001A60FB68043BFB600C4AFB681A60FB6882
:10413000143BFB607A68FB681A60FB68043BFB6019
:10414000FB686FF002021A60FB68203BFB60FB68B3
:1041500018461437BD465DF8047B7047614100087E
:1041600080B483B000AF0C4B1B68B3F1FF3F09D0A4
:104170004FF0500383F31188BFF36F8FBFF34F8F5E
:104180003B60FEE74FF0500383F31188BFF36F8F5E
:10419000BFF34F8F7B60FEE784000020000000002B
:1041A000074B19680868B0E8F04F80F30988BFF33F
:1041B0006F8F4FF0000080F311887047AFF30080DD
:1041C000B00A002000BF00BF06480068006880F306
:1041D000088862B661B6BFF34F8FBFF36F8F00DF01
:1041E00000BF00BF08ED00E080B586B000AF3B4BDC
:1041F0001B683B4A934209D14FF0500383F3118867
:10420000BFF36F8FBFF34F8FFB60FEE7334B1B682D
:10421000344A934209D14FF0500383F31188BFF31E
:104220006F8FBFF34F8F3B61FEE72F4B7B617B6945
:104230001B78DBB2BB607B69FF221A707B691B783D
:10424000DBB2FB71FB79DBB203F05003DAB2274B30
:104250001A70274B07221A6009E0254B1B68013BA7
:10426000234A1360FB79DBB25B00DBB2FB71FB79A5
:10427000DBB25BB2002BF0DB1D4B1B681B021C4A40
:1042800013601B4B1B6803F4E063194A1360BB689F
:10429000DAB27B691A70174A164B1B6843F4700335
:1042A0001360144A134B1B6843F07043136000F013
:1042B000D3F8114B00221A6000F0EAF80F4A0F4BB6
:1042C0001B6843F040431360FFF77EFFFFF748FF92
:1042D000002318461837BD4680BD00BF00ED00E042
:1042E00071C20F4170C20F4100E400E0F00B0020EA
:1042F000F40B002020ED00E08400002034EF00E00B
:1043000080B483B000AF4FF0500383F31188BFF344
:104310006F8FBFF34F8F3B600E4B1B6801330D4A0D
:1043200013600C4B1B68012B0ED10B4B1B68DBB2CF
:10433000002B09D04FF0500383F31188BFF36F8F28
:10434000BFF34F8F7B60FEE700BF0C37BD465DF8C3
:10435000047B70478400002004ED00E080B483B04B
:1043600000AF114B1B68002B09D14FF0500383F3B2
:104370001188BFF36F8FBFF34F8F3B60FEE70A4B8F
:104380001B68013B084A1360074B1B68002B04D1D4
:1043900000237B607B6883F3118800BF0C37BD4628
:1043A0005DF8047B704700BF84000020000000001F
:1043B000EFF30980BFF36F8F154B1A681EF0100FD3
:1043C00008BF20ED108A20E9F04F10604DF8043D41
:1043D0004FF0500080F31188BFF34F8FBFF36F8F02
:1043E000FEF7BAFF4FF0000080F3118808BC19688F
:1043F0000868B0E8F04F1EF0100F08BFB0EC108A4C
:1044000080F30988BFF36F8F704700BFAFF3008060
:10441000B00A002000BF00BF80B582B000AF4FF0EF
:10442000500383F31188BFF36F8FBFF34F8F3B604F
:10443000FEF7D6FE0346002B03D0064B4FF080520A
:104440001A6000237B607B6883F3118800BF083704
:10445000BD4680BD04ED00E080B400AF084A094BC2
:104460001B680949A1FB03139B09013B1360074B20
:1044700007221A6000BFBD465DF8047B704700BF8D
:1044800014E000E070000020D34D621010E000E066
:10449000DFF80C00016841F470010160704700BF53
:1044A00088ED00E080B485B000AFEFF30583FB60DA
:1044B000FB680F2B13D9164AFB6813441B78FB7259
:1044C000144B1B78FA7A9A4209D24FF0500383F3C7
:1044D0001188BFF36F8FBFF34F8F3B60FEE70E4B2A
:1044E0001B6803F4E0620D4B1B689A4209D94FF038
:1044F000500383F31188BFF36F8FBFF34F8F7B603F
:10450000FEE700BF1437BD465DF8047B704700BF6F
:10451000F0E300E0F00B00200CED00E0F40B0020D5
:1045200080B584B000AF786039607B68FB60FB6861
:10453000002B09D14FF0500383F31188BFF36F8F25
:10454000BFF34F8FBB60FEE7FFF7DAFEFB681A6828
:10455000FB68DB6BF968096C01FB03F31A44FB6829
:104560005A60FB6800229A63FB681A68FB689A60CD
:10457000FB681A68FB68DB6B013BF968096C01FB9F
:1045800003F31A44FB68DA60FB68FF2283F84420D7
:10459000FB68FF2283F845203B68002B14D1FB68A1
:1045A0001B69002B1AD0FB6810331846FEF77CFFFE
:1045B0000346002B12D00D4B4FF080521A60BFF310
:1045C0004F8FBFF36F8F09E0FB6810331846FFF77A
:1045D0002DFBFB6824331846FFF728FBFFF7BEFED0
:1045E000012318461037BD4680BD00BF04ED00E032
:1045F00080B58AB002AFF860B9601346FB71FB6802
:10460000002B09D14FF0500383F31188BFF36F8F54
:10461000BFF34F8F3B61FEE7BB68002B02D1002345
:10462000FB6104E0FB68BA6802FB03F3FB61FB6912
:104630004833184600F0B8FEB861BB69002B0BD0B8
:10464000BB6948337B61FA79BB69009313467A6989
:10465000B968F86800F006F8BB6918462037BD460F
:1046600080BD00BF80B584B000AFF860B9607A60EB
:10467000FB70BB68002B03D1BB69BA691A6002E00A
:10468000BB697A681A60BB69FA68DA63BB69BA68A1
:104690001A640121B869FFF743FF00BF1037BD4618
:1046A00080BD00BF80B58EB000AFF860B9607A60A1
:1046B0003B6000237B63FB683B633B6B002B09D1B2
:1046C0004FF0500383F31188BFF36F8FBFF34F8F09
:1046D000FB61FEE7BB68002B03D13B6B1B6C002B1F
:1046E00001D1012300E00023002B09D14FF050033A
:1046F00083F31188BFF36F8FBFF34F8F3B62FEE7E9
:104700003B68022B03D13B6BDB6B012B01D10123F7
:1047100000E00023002B09D14FF0500383F31188F0
:10472000BFF36F8FBFF34F8F7B62FEE7FFF710F889
:104730000346002B02D17B68002B01D1012300E04E
:104740000023002B09D14FF0500383F31188BFF3EE
:104750006F8FBFF34F8FBB62FEE7FFF7D1FD3B6B5F
:104760009A6B3B6BDB6B9A4202D33B68022B29D1DD
:104770003A68B968386B00F09DFAF8623B6B5B6A87
:10478000002B10D03B6B24331846FEF78DFE0346FA
:10479000002B13D03F4B4FF080521A60BFF34F8F66
:1047A000BFF36F8F0AE0FB6A002B07D0394B4FF045
:1047B00080521A60BFF34F8FBFF36F8FFFF7CEFDAC
:1047C000012363E07B68002B03D1FFF7C7FD0023C3
:1047D0005CE07B6B002B06D107F114031846FEF753
:1047E000C5FE01237B63FFF7B9FDFEF73FFCFFF732
:1047F00087FD3B6B93F844305BB2B3F1FF3F03D1CD
:104800003B6B002283F844203B6B93F845305BB24E
:10481000B3F1FF3F03D13B6B002283F84520FFF744
:104820009DFD3A1D07F1140311461846FEF7C2FE1E
:104830000346002B24D1386B00F026FB0346002BE7
:1048400018D03B6B10337A6811461846FEF7DEFD30
:10485000386B00F0B1FAFEF717FC0346002B7FF42B
:104860007CAF0C4B4FF080521A60BFF34F8FBFF3F9
:104870006F8F72E7386B00F09FFAFEF705FC6CE76C
:10488000386B00F099FAFEF7FFFB00231846383723
:10489000BD4680BD04ED00E080B58EB000AFF8608D
:1048A000B9607A603B60FB683B633B6B002B09D1CE
:1048B0004FF0500383F31188BFF36F8FBFF34F8F17
:1048C0007B61FEE7BB68002B03D13B6B1B6C002BAD
:1048D00001D1012300E00023002B09D14FF0500348
:1048E00083F31188BFF36F8FBFF34F8FBB61FEE778
:1048F0003B68022B03D13B6BDB6B012B01D1012306
:1049000000E00023002B09D14FF0500383F31188FE
:10491000BFF36F8FBFF34F8FFB61FEE7FFF7C2FD61
:10492000EFF311824FF0500383F31188BFF36F8FC1
:10493000BFF34F8F3A623B613B6ABB623B6B9A6B42
:104940003B6BDB6B9A4202D33B68022B2CD13B6B57
:1049500093F8453087F827303A68B968386B00F02B
:10496000A9F997F92730B3F1FF3F12D13B6B5B6A8E
:10497000002B16D03B6B24331846FEF795FD0346FB
:10498000002B0ED07B68002B0BD07B6801221A60B5
:1049900007E097F827300133DBB25AB23B6B83F85C
:1049A000452001237B6301E000237B63BB6AFB623C
:1049B000FB6A83F311887B6B18463837BD4680BD90
:1049C00080B58EB000AFF860B9607A603B600023BC
:1049D0007B63FB683B633B6B002B09D14FF05003BB
:1049E00083F31188BFF36F8FBFF34F8FFB61FEE737
:1049F000BB68002B03D13B6B1B6C002B01D1012347
:104A000000E00023002B09D14FF0500383F31188FD
:104A1000BFF36F8FBFF34F8F3B62FEE7FEF798FE49
:104A20000346002B02D17B68002B01D1012300E05B
:104A30000023002B09D14FF0500383F31188BFF3FB
:104A40006F8FBFF34F8F7B62FEE7FFF759FC3B6B25
:104A50009B6BFB62FB6A002B3DD03B6BDB68BB6250
:104A6000B968386B00F082F93B68002B18D1FB6AFB
:104A70005A1E3B6B9A633B6B1B69002B27D03B6B29
:104A800010331846FEF710FD0346002B1FD0494B8C
:104A90004FF080521A60BFF34F8FBFF36F8F16E055
:104AA0003B6BBA6ADA603B6B5B6A002B0FD03B6BE7
:104AB00024331846FEF7F8FC0346002B07D03D4B85
:104AC0004FF080521A60BFF34F8FBFF36F8FFFF725
:104AD00045FC01236AE07B68002B03D1FFF73EFC15
:104AE000002363E07B6B002B06D107F1140318460B
:104AF000FEF73CFD01237B63FFF730FCFEF7B6FABF
:104B0000FFF7FEFB3B6B93F844305BB2B3F1FF3F22
:104B100003D13B6B002283F844203B6B93F8453074
:104B20005BB2B3F1FF3F03D13B6B002283F845201A
:104B3000FFF714FC3A1D07F1140311461846FEF75F
:104B400039FD0346002B24D1386B00F087F903466A
:104B5000002B18D03B6B24337A6811461846FEF7B9
:104B600055FC386B00F028F9FEF78EFA0346002B4F
:104B70007FF46BAF0F4B4FF080521A60BFF34F8F33
:104B8000BFF36F8F61E7386B00F016F9FEF77CFA20
:104B90005BE7386B00F010F9FEF776FA386B00F03F
:104BA0005DF90346002B3FF450AF00231846383719
:104BB000BD4680BD04ED00E080B58EB000AFF8606A
:104BC000B9607A60FB683B633B6B002B09D14FF007
:104BD000500383F31188BFF36F8FBFF34F8F7B6157
:104BE000FEE7BB68002B03D13B6B1B6C002B01D194
:104BF000012300E00023002B09D14FF0500383F381
:104C00001188BFF36F8FBFF34F8FBB61FEE7FFF7D4
:104C100049FCEFF311824FF0500383F31188BFF387
:104C20006F8FBFF34F8FFA613B61FB69BB623B6BD8
:104C30009B6B7B627B6A002B2FD03B6B93F84430DD
:104C400087F82330B968386B00F090F87B6A5A1EF9
:104C50003B6B9A6397F92330B3F1FF3F12D13B6B63
:104C60001B69002B16D03B6B10331846FEF71CFC5B
:104C70000346002B0ED07B68002B0BD07B680122F3
:104C80001A6007E097F823300133DBB25AB23B6B6E
:104C900083F8442001237B6301E000237B63BB6A2C
:104CA000FB62FB6A83F311887B6B18463837BD467D
:104CB00080BD00BF80B586B000AFF860B9607A6093
:104CC00000233B61FB689B6B7B61FB681B6C002BCB
:104CD00043D07B68002B19D1FB689868FB681B6C7C
:104CE0001A46B96803F0FAFAFB689A68FB681B6C0D
:104CF0001A44FB689A60FB689A68FB685B689A4292
:104D00002BD3FB681A68FB689A6026E0FB68D868BA
:104D1000FB681B6C1A46B96803F0E0FAFB68DA68B6
:104D2000FB681B6C5B421A44FB68DA60FB68DA685C
:104D3000FB681B689A4207D2FB685A68FB681B6CC9
:104D40005B421A44FB68DA607B68022B05D17B6901
:104D5000002B02D07B69013B7B617B695A1CFB689D
:104D60009A633B6918461837BD4680BD80B582B04E
:104D700000AF786039607B681B6C002B18D07B68B3
:104D8000DA687B681B6C1A447B68DA607B68DA68D7
:104D90007B685B689A4203D37B681A687B68DA6039
:104DA0007B68D9687B681B6C1A46386803F096FAF2
:104DB00000BF0837BD4680BD80B584B000AF7860C5
:104DC000FFF79EFA7B6893F84530FB7311E07B6830
:104DD0005B6A002B12D07B6824331846FEF764FB15
:104DE0000346002B01D0FEF73BFCFB7B013BDBB213
:104DF000FB7397F90F30002BE9DC00E000BF7B6804
:104E0000FF2283F84520FFF7A9FAFFF779FA7B68BC
:104E100093F84430BB7311E07B681B69002B12D000
:104E20007B6810331846FEF73FFB0346002B01D08A
:104E3000FEF716FCBB7B013BDBB2BB7397F90E3070
:104E4000002BE9DC00E000BF7B68FF2283F84420F0
:104E5000FFF784FA00BF1037BD4680BD80B584B02F
:104E600000AF7860FFF74CFA7B689B6B002B02D198
:104E70000123FB6001E00023FB60FFF76FFAFB6892
:104E800018461037BD4680BD80B584B000AF78604D
:104E9000FFF736FA7B689A6B7B68DB6B9A4202D12C
:104EA0000123FB6001E00023FB60FFF757FAFB687A
:104EB00018461037BD4680BD80B485B000AF78601D
:104EC00039600023FB6014E00E4AFB6852F833306F
:104ED000002B0BD10B49FB683A6841F83320094A93
:104EE000FB68DB0013447A685A6005E0FB68013315
:104EF000FB60FB68072BE7D900BF1437BD465DF8A0
:104F0000047B70475C38012080B586B000AFF86044
:104F1000B9607A60FB687B61FFF7F2F97B6993F80F
:104F200044305BB2B3F1FF3F03D17B69002283F8C9
:104F300044207B6993F845305BB2B3F1FF3F03D166
:104F40007B69002283F84520FFF708FA7B699B6B99
:104F5000002B06D17B6924337A68B9681846FEF7BE
:104F600079FA7869FFF728FF00BF1837BD4680BD82
:104F700080B582B000AF78607B68174A93420AD14F
:104F800001214FF40010FDF7D3F900214FF4001078
:104F9000FDF7CEF91CE07B68104A93420AD101214B
:104FA0004FF48000FDF7C4F900214FF48000FDF7B5
:104FB000BFF90DE07B680A4A934209D101214FF401
:104FC0000000FDF7B5F900214FF40000FDF7B0F93E
:104FD00000BF0837BD4680BD005400400058004067
:104FE000005C004080B58AB000AF78603960002373
:104FF000FB8400237B840423BB84574BFB617B68C9
:105000009B88FB84FB8C23F03F03FB8407F10C039C
:105010001846FDF783F87B69FB61FB694F4AA2FBE9
:1050200003239B0C7B84FA8C7B8C1343FB847B686F
:10503000FA8C9A807B681B889BB223F001039AB29A
:105040007B681A800023FB843B681B68444A9342B8
:1050500015D83B681B685B00FA69B2FBF3F3BB84AD
:10506000BB8C032B01D80423BB84FA8CBB8C134369
:10507000FB847B8C01339AB27B681A8440E03B68E6
:10508000DB884BF6FF72934209D13B681A681346DE
:105090005B001344FA69B2FBF3F3BB840EE03B6898
:1050A0001A6813469B0013449A001344FA69B2FB32
:1050B000F3F3BB84BB8C43F48043BB84BB8CC3F34E
:1050C0000B03002B03D1BB8C43F00103BB84BA8CD0
:1050D000FB8C13439BB26FEA43436FEA5343FB8459
:1050E0007B8C4FF4967202FB03F31E4A82FB031281
:1050F0009211DB17D31A9BB201339AB27B681A84E0
:105100007B68FA8C9A837B681B889BB243F001030F
:105110009AB27B681A807B681B88FB84FB8C23F423
:10512000816323F00203FB843B689A883B685B89B8
:1051300013439AB2FB8C1343FB847B68FA8C1A806E
:105140003B689A893B681B8913439AB27B681A8132
:1051500000BF2837BD4680BD00127A0083DE1B43A6
:10516000A0860100D34D621080B483B000AF786098
:105170000B46FB70FB78002B08D07B681B889BB22A
:1051800043F001039AB27B681A8007E07B681B88B2
:105190009BB223F001039AB27B681A8000BF0C37E0
:1051A000BD465DF8047B704780B483B000AF786083
:1051B0000B46FB70FB78002B08D07B681B889BB2EA
:1051C00043F480739AB27B681A8007E07B681B887F
:1051D0009BB223F480739AB27B681A8000BF0C37AD
:1051E000BD465DF8047B704780B483B000AF786043
:1051F0000B46FB70FB78002B08D07B681B889BB2AA
:1052000043F400739AB27B681A8007E07B681B88BE
:105210009BB223F400739AB27B681A8000BF0C37EC
:10522000BD465DF8047B704780B483B000AF786002
:105230000B46FB701346BB70BB78002B04D0FB7889
:1052400043F00103FB7003E0FB7823F00103FB70E4
:10525000FB789AB27B681A8200BF0C37BD465DF8B6
:10526000047B704780B483B000AF78600B46FB705E
:10527000FB78002B08D07B681B889BB243F48063CB
:105280009AB27B681A8007E07B681B889BB223F484
:1052900080639AB27B681A8000BF0C37BD465DF808
:1052A000047B704780B483B000AF78600B46FB701E
:1052B000FB789AB27B681A8200BF0C37BD465DF856
:1052C000047B704780B483B000AF78607B681B8A32
:1052D0009BB2DBB218460C37BD465DF8047B7047C5
:1052E00080B487B000AF7860396000233B61002351
:1052F000FB600023BB600023FB757B689B8A9BB22D
:10530000FB607B681B8B9BB2BB60BB681B04BB60F4
:10531000FA68BB68134323F07F433B613A693B68FB
:105320001A403B689A4202D10123FB7501E0002339
:10533000FB75FB7D18461C37BD465DF8047B704746
:1053400080B487B000AF786039600023FB7500231C
:105350003B610023FB607B68FB603B681B0F3B618C
:105360003B6823F07F433B603B69002B03D0FB6825
:105370001433FB6005E03B681B0C3B60FB68183393
:10538000FB60FB681A683B681340002B02D00123C6
:10539000FB7501E00023FB75FB7D18461C37BD46FD
:1053A0005DF8047B704700BF80B584B000AF7860C3
:1053B0000023FB607B6803F00703002B04D07B68AD
:1053C00023F0070308337B60FDF750FE154B1B6885
:1053D000002B05D1144B23F007031A46114B1A601A
:1053E000124B1A687B681344114A934213D80F4B2F
:1053F0001A687B681A440D4B1B689A420BD9094BFB
:105400001A680A4B1B681344FB60084B1A687B68D8
:105410001344064A1360FDF737FEFB681846103741
:10542000BD4680BDFC370120000C0020F83701206C
:10543000F72B010080B485B000AF78607B68002B4B
:1054400009D04FF0500383F31188BFF36F8FBFF380
:105450004F8FFB60FEE700BF1437BD465DF8047B4D
:10546000704700BF80B483B000AF0346FB710949A9
:1054700097F907305B09FA7902F01F02012000FA60
:1054800002F241F8232000BF0C37BD465DF8047BD3
:10549000704700BF00E100E080B483B000AF034676
:1054A0003960FB7197F90730002B0BDA0D49FB7956
:1054B00003F00F03043B3A68D2B21201D2B20B449C
:1054C0001A7609E0084997F907303A68D2B2120112
:1054D000D2B20B4483F8002300BF0C37BD465DF801
:1054E000047B704700ED00E000E100E080B485B08F
:1054F00000AF0346FB801023FB81FB88802B49D043
:10550000802B11DC082B39D0082B06DC022B2FD086
:10551000042B30D0012B28D057E0202B34D0402B47
:1055200035D0102B2DD050E0B3F5006F3ED0B3F541
:10553000006F09DCB3F5007F32D0B3F5806F32D055
:10554000B3F5807F29D040E0B3F5005F34D0B3F5E8
:10555000005F03DCB3F5805F2BD036E0B3F5804FFE
:105560002DD0B3F5004F2DD02FE00023FB812CE090
:105570000123FB8129E00223FB8126E00323FB8139
:1055800023E00423FB8120E00523FB811DE00623AB
:10559000FB811AE00723FB8117E00823FB8114E05D
:1055A0000923FB8111E00A23FB810EE00B23FB8121
:1055B0000BE00C23FB8108E00D23FB8105E00E23AB
:1055C000FB8102E00F23FB8100BFFB8918461437E3
:1055D000BD465DF8047B704780B485B000AF0346DC
:1055E000FB71F523FB73FB79052B21D801A252F83F
:1055F00023F000BF0D560008135600081956000886
:105600001F560008255600082B5600082523FB735B
:105610000FE02623FB730CE02723FB7309E0342300
:10562000FB7306E03523FB7303E04723FB7300E0C5
:1056300000BF97F90F3018461437BD465DF8047B5C
:10564000704700BF80B485B000AF78607B68244AA3
:10565000934202D10123FB603AE07B68214A9342E6
:1056600002D10223FB6033E07B681F4A934202D1E0
:105670000423FB602CE07B681C4A934202D1082380
:10568000FB6025E07B681A4A934202D11023FB603D
:105690001EE07B68174A934202D12023FB6017E08B
:1056A0007B68154A934202D14023FB6010E07B687F
:1056B000124A934202D18023FB6009E07B68104AC2
:1056C000934203D14FF48073FB6001E00023FB6041
:1056D000FB6818461437BD465DF8047B704700BF71
:1056E000000002400004024000080240000C02409A
:1056F000001002400014024000180240001C02404A
:105700000020024080B58AB000AF0346FB71FB79F0
:10571000052B4AD801A252F823F000BF35570008E4
:105720004B5700085D57000873570008855700085D
:1057300099570008634B3B62624B7B624FF4806376
:10574000BB834FF40073FB8331E05E4B3B625D4BE8
:105750007B620823BB830423FB8328E05A4B3B6214
:10576000594B7B624FF40063BB834FF48063FB8330
:105770001DE0544B3B62534B7B620223BB830123EE
:10578000FB8314E0514B3B62514B7B620423BB8390
:105790004FF48053FB830AE04D4B3B624C4B7B62E2
:1057A0008023BB834023FB8301E0002386E00223A8
:1057B0003B740023BB74FB8BFB600023FB7403234F
:1057C0007B74786AFFF73EFF034601211846FCF719
:1057D0004FFD07F10C031946786AFEF72BF8FB79A9
:1057E000002B05D0FB79022B02D0FB79012B0CD1C9
:1057F000FB8B1846FFF77AFE03463B833B8B072261
:105800001946786AFEF7A4F814E0FB79032B05D05B
:10581000FB79042B02D0FB79052B0BD1FB8B1846AF
:10582000FFF764FE03467B837B8B08221946786A68
:10583000FEF78EF802233B740023BB74BB8BFB6026
:105840000023FB7403237B74386AFFF7FBFE0346D7
:1058500001211846FCF70CFD07F10C031946386AC4
:10586000FDF7E8FFFB79002B05D0FB79022B02D076
:10587000FB79012B0CD1BB8B1846FFF737FE034693
:10588000BB82BB8A07221946386AFEF761F814E02A
:10589000FB79032B05D0FB79042B02D0FB79052B78
:1058A0000BD1BB8B1846FFF721FE0346FB82FB8A18
:1058B00008221946386AFEF74BF8012318462837A4
:1058C000BD4680BD0000024000040240000C0240C2
:1058D0000008024080B485B000AF0346FB7100238E
:1058E000FB60FB79052B21D801A252F823F000BF01
:1058F000095900080F590008155900081B590008DC
:1059000021590008275900080D4BFB6011E00D4B91
:10591000FB600EE00C4BFB600BE00C4BFB6008E007
:105920000B4BFB6005E00B4BFB6002E00023FB60D0
:1059300000BFFB6818461437BD465DF8047B70470E
:10594000001001400044004000480040004C00406E
:10595000005000400014014080B584B000AF034601
:10596000FB710023FB60FB79052B3DD801A252F8A7
:1059700023F000BF8D5900089B590008AB5900085F
:10598000BB590008CB590008DB5900081023FB6005
:105990000121F868FCF7ACFC27E04FF40033FB6012
:1059A0000121F868FCF784FC1FE04FF48023FB60C2
:1059B0000121F868FCF77CFC17E04FF40023FB6042
:1059C0000121F868FCF774FC0FE04FF48013FB60D2
:1059D0000121F868FCF76CFC07E02023FB60012143
:1059E000F868FCF785FC00E000BF00BF1037BD463B
:1059F00080BD00BF80B58AB000AFB9607A603B60FF
:105A00000346FB73FB7B1846FFF77CFE0346002B27
:105A100001D1002374E0BB687B6100233B840C232D
:105A2000FB830023BB834FF400537B8300233B8322
:105A3000FB7B1846FFF790FFFB7B1846FFF74AFFFA
:105A4000024607F1140319461046FBF7A7FBFB7B40
:105A50001846FFF73FFF0346012240F22551184642
:105A6000FBF798FCFB7B1846FFF7B6FD034618468C
:105A7000FFF7F8FCFB7B1846FFF7AEFD0346062157
:105A80001846FFF709FDFB7B1846FFF723FF034687
:105A900001211846FBF73CFC1420FFF785FC7862D7
:105AA0007B6A002B2BD07B6ABA685A607B6AFA7BD0
:105AB0001A70002201213868FEF79AFD02467B6ABF
:105AC000DA607B6ADB68002B01D1002318E000223A
:105AD00001213868FEF78CFD02467B6A9A607B6A7A
